{
  "_format": "hh-sol-artifact-1",
  "contractName": "KeyValueStoreBasic",
  "sourceName": "contracts/KeyValueStoreBasic.sol",
  "abi": [
    {
      "inputs": [],
      "stateMutability": "nonpayable",
      "type": "constructor"
    },
    {
      "anonymous": false,
      "inputs": [
        {
          "indexed": true,
          "internalType": "address",
          "name": "previousOwner",
          "type": "address"
        },
        {
          "indexed": true,
          "internalType": "address",
          "name": "newOwner",
          "type": "address"
        }
      ],
      "name": "OwnershipTransferred",
      "type": "event"
    },
    {
      "anonymous": false,
      "inputs": [
        {
          "indexed": true,
          "internalType": "address",
          "name": "user",
          "type": "address"
        },
        {
          "indexed": false,
          "internalType": "string",
          "name": "key",
          "type": "string"
        },
        {
          "indexed": false,
          "internalType": "string",
          "name": "value",
          "type": "string"
        }
      ],
      "name": "ValueDeleted",
      "type": "event"
    },
    {
      "anonymous": false,
      "inputs": [
        {
          "indexed": true,
          "internalType": "address",
          "name": "user",
          "type": "address"
        },
        {
          "indexed": false,
          "internalType": "string",
          "name": "key",
          "type": "string"
        },
        {
          "indexed": false,
          "internalType": "string",
          "name": "value",
          "type": "string"
        }
      ],
      "name": "ValueStored",
      "type": "event"
    },
    {
      "anonymous": false,
      "inputs": [
        {
          "indexed": true,
          "internalType": "address",
          "name": "user",
          "type": "address"
        },
        {
          "indexed": false,
          "internalType": "string",
          "name": "key",
          "type": "string"
        },
        {
          "indexed": false,
          "internalType": "string",
          "name": "oldValue",
          "type": "string"
        },
        {
          "indexed": false,
          "internalType": "string",
          "name": "newValue",
          "type": "string"
        }
      ],
      "name": "ValueUpdated",
      "type": "event"
    },
    {
      "inputs": [],
      "name": "MAX_KEY_LENGTH",
      "outputs": [
        {
          "internalType": "uint256",
          "name": "",
          "type": "uint256"
        }
      ],
      "stateMutability": "view",
      "type": "function"
    },
    {
      "inputs": [],
      "name": "MAX_VALUE_LENGTH",
      "outputs": [
        {
          "internalType": "uint256",
          "name": "",
          "type": "uint256"
        }
      ],
      "stateMutability": "view",
      "type": "function"
    },
    {
      "inputs": [
        {
          "internalType": "string",
          "name": "key",
          "type": "string"
        }
      ],
      "name": "exists",
      "outputs": [
        {
          "internalType": "bool",
          "name": "",
          "type": "bool"
        }
      ],
      "stateMutability": "view",
      "type": "function"
    },
    {
      "inputs": [
        {
          "internalType": "address",
          "name": "user",
          "type": "address"
        },
        {
          "internalType": "string",
          "name": "key",
          "type": "string"
        }
      ],
      "name": "existsFor",
      "outputs": [
        {
          "internalType": "bool",
          "name": "",
          "type": "bool"
        }
      ],
      "stateMutability": "view",
      "type": "function"
    },
    {
      "inputs": [
        {
          "internalType": "string",
          "name": "key",
          "type": "string"
        }
      ],
      "name": "get",
      "outputs": [
        {
          "internalType": "string",
          "name": "",
          "type": "string"
        }
      ],
      "stateMutability": "view",
      "type": "function"
    },
    {
      "inputs": [],
      "name": "getAllKeys",
      "outputs": [
        {
          "internalType": "string[]",
          "name": "",
          "type": "string[]"
        }
      ],
      "stateMutability": "view",
      "type": "function"
    },
    {
      "inputs": [
        {
          "internalType": "address",
          "name": "user",
          "type": "address"
        }
      ],
      "name": "getAllKeysFor",
      "outputs": [
        {
          "internalType": "string[]",
          "name": "",
          "type": "string[]"
        }
      ],
      "stateMutability": "view",
      "type": "function"
    },
    {
      "inputs": [
        {
          "internalType": "address",
          "name": "user",
          "type": "address"
        },
        {
          "internalType": "string",
          "name": "key",
          "type": "string"
        }
      ],
      "name": "getFrom",
      "outputs": [
        {
          "internalType": "string",
          "name": "",
          "type": "string"
        }
      ],
      "stateMutability": "view",
      "type": "function"
    },
    {
      "inputs": [],
      "name": "getKeyCount",
      "outputs": [
        {
          "internalType": "uint256",
          "name": "",
          "type": "uint256"
        }
      ],
      "stateMutability": "view",
      "type": "function"
    },
    {
      "inputs": [
        {
          "internalType": "address",
          "name": "user",
          "type": "address"
        }
      ],
      "name": "getKeyCountFor",
      "outputs": [
        {
          "internalType": "uint256",
          "name": "",
          "type": "uint256"
        }
      ],
      "stateMutability": "view",
      "type": "function"
    },
    {
      "inputs": [
        {
          "internalType": "uint256",
          "name": "offset",
          "type": "uint256"
        },
        {
          "internalType": "uint256",
          "name": "limit",
          "type": "uint256"
        }
      ],
      "name": "getKeysPaginated",
      "outputs": [
        {
          "internalType": "string[]",
          "name": "keys",
          "type": "string[]"
        },
        {
          "internalType": "bool",
          "name": "hasMore",
          "type": "bool"
        }
      ],
      "stateMutability": "view",
      "type": "function"
    },
    {
      "inputs": [
        {
          "internalType": "address",
          "name": "user",
          "type": "address"
        },
        {
          "internalType": "uint256",
          "name": "offset",
          "type": "uint256"
        },
        {
          "internalType": "uint256",
          "name": "limit",
          "type": "uint256"
        }
      ],
      "name": "getKeysPaginatedFor",
      "outputs": [
        {
          "internalType": "string[]",
          "name": "keys",
          "type": "string[]"
        },
        {
          "internalType": "bool",
          "name": "hasMore",
          "type": "bool"
        }
      ],
      "stateMutability": "view",
      "type": "function"
    },
    {
      "inputs": [],
      "name": "owner",
      "outputs": [
        {
          "internalType": "address",
          "name": "",
          "type": "address"
        }
      ],
      "stateMutability": "view",
      "type": "function"
    },
    {
      "inputs": [
        {
          "internalType": "string",
          "name": "key",
          "type": "string"
        }
      ],
      "name": "remove",
      "outputs": [],
      "stateMutability": "nonpayable",
      "type": "function"
    },
    {
      "inputs": [],
      "name": "renounceOwnership",
      "outputs": [],
      "stateMutability": "nonpayable",
      "type": "function"
    },
    {
      "inputs": [
        {
          "internalType": "string",
          "name": "key",
          "type": "string"
        },
        {
          "internalType": "string",
          "name": "value",
          "type": "string"
        }
      ],
      "name": "set",
      "outputs": [],
      "stateMutability": "nonpayable",
      "type": "function"
    },
    {
      "inputs": [
        {
          "internalType": "address",
          "name": "newOwner",
          "type": "address"
        }
      ],
      "name": "transferOwnership",
      "outputs": [],
      "stateMutability": "nonpayable",
      "type": "function"
    }
  ],
  "bytecode": "0x608060405234801561001057600080fd5b5061001a3361001f565b61006f565b600080546001600160a01b038381166001600160a01b0319831681178455604051919092169283917f8be0079c531659141344cd1fd0a4f28419497f9722a3daafe3b4186f6b6457e09190a35050565b61171a8061007e6000396000f3fe608060405234801561001057600080fd5b506004361061010b5760003560e01c806371956db3116100a2578063c03029bb11610071578063c03029bb14610235578063e942b51614610248578063ee1ce8411461025b578063f26b8ad914610270578063f2fde38b1461028357600080fd5b806371956db3146101ec57806380599e4b146101ff5780638da5cb5b14610212578063bc87eed31461022d57600080fd5b806348560a89116100de57806348560a8914610190578063693ec85e146101995780636e914a02146101b9578063715018a6146101e257600080fd5b806304491c3e14610110578063261a323e1461012c57806327a5bd671461014f578063298f513814610170575b600080fd5b61011961010081565b6040519081526020015b60405180910390f35b61013f61013a36600461131d565b610296565b6040519015158152602001610123565b61016261015d366004611376565b6102cc565b60405161012392919061145a565b61018361017e36600461147e565b6102e8565b60405161012391906114a0565b61011961200081565b6101ac6101a736600461131d565b6103d7565b60405161012391906114b3565b6101196101c736600461147e565b6001600160a01b031660009081526002602052604090205490565b6101ea610497565b005b6101626101fa3660046114c6565b6104ab565b6101ea61020d36600461131d565b6104c5565b6000546040516001600160a01b039091168152602001610123565b6101836108fb565b6101ac6102433660046114e8565b6109df565b6101ea610256366004611536565b610aa9565b33600090815260026020526040902054610119565b61013f61027e3660046114e8565b610e64565b6101ea61029136600461147e565b610ea5565b3360009081526003602052604080822090516102b3908490611590565b9081526040519081900360200190205460ff1692915050565b606060006102db858585610f1e565b915091505b935093915050565b6001600160a01b0381166000908152600260209081526040808320805482518185028101850190935280835260609492939192909184015b828210156103cc57838290600052602060002001805461033f906115ac565b80601f016020809104026020016040519081016040528092919081815260200182805461036b906115ac565b80156103b85780601f1061038d576101008083540402835291602001916103b8565b820191906000526020600020905b81548152906001019060200180831161039b57829003601f168201915b505050505081526020019060010190610320565b505050509050919050565b33600090815260016020526040908190209051606091906103f9908490611590565b90815260200160405180910390208054610412906115ac565b80601f016020809104026020016040519081016040528092919081815260200182805461043e906115ac565b801561048b5780601f106104605761010080835404028352916020019161048b565b820191906000526020600020905b81548152906001019060200180831161046e57829003601f168201915b50505050509050919050565b61049f6110fd565b6104a96000611157565b565b606060006104ba338585610f1e565b915091509250929050565b336000818152600360205260409081902090516104e3908490611590565b9081526040519081900360200190205460ff1661053c5760405162461bcd60e51b815260206004820152601260248201527112d95e48191bd95cc81b9bdd08195e1a5cdd60721b60448201526064015b60405180910390fd5b6001600160a01b0381166000908152600160205260408082209051610562908590611590565b9081526020016040518091039020805461057b906115ac565b80601f01602080910402602001604051908101604052809291908181526020018280546105a7906115ac565b80156105f45780601f106105c9576101008083540402835291602001916105f4565b820191906000526020600020905b8154815290600101906020018083116105d757829003601f168201915b5050506001600160a01b038516600090815260016020526040908190209051939450926106249250869150611590565b9081526020016040518091039020600061063e91906111a7565b6001600160a01b038216600090815260036020526040908190209051610665908590611590565b9081526040805160209281900383018120805460ff191690556001600160a01b03851660009081526004909352908220906106a1908690611590565b9081526040805160209281900383019020546001600160a01b03861660009081526002909352908220549092506106da906001906115fd565b9050808214610833576001600160a01b038416600090815260026020526040812080548390811061070d5761070d611614565b906000526020600020018054610722906115ac565b80601f016020809104026020016040519081016040528092919081815260200182805461074e906115ac565b801561079b5780601f106107705761010080835404028352916020019161079b565b820191906000526020600020905b81548152906001019060200180831161077e57829003601f168201915b505050505090508060026000876001600160a01b03166001600160a01b0316815260200190815260200160002084815481106107d9576107d9611614565b9060005260206000200190805190602001906107f69291906111e1565b506001600160a01b038516600090815260046020526040908190209051849190610821908490611590565b90815260405190819003602001902055505b6001600160a01b038416600090815260026020526040902080548061085a5761085a61162a565b60019003818190600052602060002001600061087691906111a7565b90556001600160a01b03841660009081526004602052604090819020905161089f908790611590565b908152602001604051809103902060009055836001600160a01b03167fbb479abda96ff9f438c576a864d5defaafdcc6bc01f7fb49b2ef71ea66f1338486856040516108ec929190611640565b60405180910390a25050505050565b336000908152600260209081526040808320805482518185028101850190935280835260609492939192909184015b828210156109d6578382906000526020600020018054610949906115ac565b80601f0160208091040260200160405190810160405280929190818152602001828054610975906115ac565b80156109c25780601f10610997576101008083540402835291602001916109c2565b820191906000526020600020905b8154815290600101906020018083116109a557829003601f168201915b50505050508152602001906001019061092a565b50505050905090565b6001600160a01b03821660009081526001602052604090819020905160609190610a0a908490611590565b90815260200160405180910390208054610a23906115ac565b80601f0160208091040260200160405190810160405280929190818152602001828054610a4f906115ac565b8015610a9c5780601f10610a7157610100808354040283529160200191610a9c565b820191906000526020600020905b815481529060010190602001808311610a7f57829003601f168201915b5050505050905092915050565b6000825111610af05760405162461bcd60e51b81526020600482015260136024820152724b65792063616e6e6f7420626520656d70747960681b6044820152606401610533565b61010082511115610b325760405162461bcd60e51b815260206004820152600c60248201526b4b657920746f6f206c6f6e6760a01b6044820152606401610533565b61200081511115610b765760405162461bcd60e51b815260206004820152600e60248201526d56616c756520746f6f206c6f6e6760901b6044820152606401610533565b33600081815260036020526040908190209051610b94908590611590565b9081526040519081900360200190205460ff1615610d0c576001600160a01b0381166000908152600160205260408082209051610bd2908690611590565b90815260200160405180910390208054610beb906115ac565b80601f0160208091040260200160405190810160405280929190818152602001828054610c17906115ac565b8015610c645780601f10610c3957610100808354040283529160200191610c64565b820191906000526020600020905b815481529060010190602001808311610c4757829003601f168201915b505050505090508260016000846001600160a01b03166001600160a01b0316815260200190815260200160002085604051610c9f9190611590565b90815260200160405180910390209080519060200190610cc09291906111e1565b50816001600160a01b03167f19f9a6c4b00573371d4f2a1bea11731fc4831e5f340d9a2eed1ea15b6244c1e9858386604051610cfe9392919061166e565b60405180910390a250505050565b6001600160a01b038116600090815260016020526040908190209051839190610d36908690611590565b90815260200160405180910390209080519060200190610d579291906111e1565b506001600160a01b03811660009081526003602052604090819020905160019190610d83908690611590565b9081526040805160209281900383018120805460ff1916941515949094179093556001600160a01b038416600090815260028352818120546004909352209091610dce908690611590565b9081526040805160209281900383019020929092556001600160a01b0383166000908152600282529182208054600181018255908352918190208551610e1b9391909101918601906111e1565b50806001600160a01b03167f297aa55e5abdb280e9f44772bf95eb34a66ecd1fed47d0edd5edb074498850e68484604051610e57929190611640565b60405180910390a2505050565b6001600160a01b0382166000908152600360205260408082209051610e8a908490611590565b9081526040519081900360200190205460ff16905092915050565b610ead6110fd565b6001600160a01b038116610f125760405162461bcd60e51b815260206004820152602660248201527f4f776e61626c653a206e6577206f776e657220697320746865207a65726f206160448201526564647265737360d01b6064820152608401610533565b610f1b81611157565b50565b6001600160a01b03831660009081526002602052604081205460609190808510610f7a576040805160008082526020820190925290610f6d565b6060815260200190600190039081610f585790505b50600092509250506102e0565b6000610f8685876116b1565b905081811115610f935750805b6000610f9f87836115fd565b90508067ffffffffffffffff811115610fba57610fba61127a565b604051908082528060200260200182016040528015610fed57816020015b6060815260200190600190039081610fd85790505b50945060005b818110156110f0576001600160a01b038916600090815260026020526040902061101d828a6116b1565b8154811061102d5761102d611614565b906000526020600020018054611042906115ac565b80601f016020809104026020016040519081016040528092919081815260200182805461106e906115ac565b80156110bb5780601f10611090576101008083540402835291602001916110bb565b820191906000526020600020905b81548152906001019060200180831161109e57829003601f168201915b50505050508682815181106110d2576110d2611614565b602002602001018190525080806110e8906116c9565b915050610ff3565b5050109050935093915050565b6000546001600160a01b031633146104a95760405162461bcd60e51b815260206004820181905260248201527f4f776e61626c653a2063616c6c6572206973206e6f7420746865206f776e65726044820152606401610533565b600080546001600160a01b038381166001600160a01b0319831681178455604051919092169283917f8be0079c531659141344cd1fd0a4f28419497f9722a3daafe3b4186f6b6457e09190a35050565b5080546111b3906115ac565b6000825580601f106111c3575050565b601f016020900490600052602060002090810190610f1b9190611265565b8280546111ed906115ac565b90600052602060002090601f01602090048101928261120f5760008555611255565b82601f1061122857805160ff1916838001178555611255565b82800160010185558215611255579182015b8281111561125557825182559160200191906001019061123a565b50611261929150611265565b5090565b5b808211156112615760008155600101611266565b634e487b7160e01b600052604160045260246000fd5b600082601f8301126112a157600080fd5b813567ffffffffffffffff808211156112bc576112bc61127a565b604051601f8301601f19908116603f011681019082821181831017156112e4576112e461127a565b816040528381528660208588010111156112fd57600080fd5b836020870160208301376000602085830101528094505050505092915050565b60006020828403121561132f57600080fd5b813567ffffffffffffffff81111561134657600080fd5b61135284828501611290565b949350505050565b80356001600160a01b038116811461137157600080fd5b919050565b60008060006060848603121561138b57600080fd5b6113948461135a565b95602085013595506040909401359392505050565b60005b838110156113c45781810151838201526020016113ac565b838111156113d3576000848401525b50505050565b600081518084526113f18160208601602086016113a9565b601f01601f19169290920160200192915050565b600081518084526020808501808196508360051b8101915082860160005b8581101561144d57828403895261143b8483516113d9565b98850198935090840190600101611423565b5091979650505050505050565b60408152600061146d6040830185611405565b905082151560208301529392505050565b60006020828403121561149057600080fd5b6114998261135a565b9392505050565b6020815260006114996020830184611405565b60208152600061149960208301846113d9565b600080604083850312156114d957600080fd5b50508035926020909101359150565b600080604083850312156114fb57600080fd5b6115048361135a565b9150602083013567ffffffffffffffff81111561152057600080fd5b61152c85828601611290565b9150509250929050565b6000806040838503121561154957600080fd5b823567ffffffffffffffff8082111561156157600080fd5b61156d86838701611290565b9350602085013591508082111561158357600080fd5b5061152c85828601611290565b600082516115a28184602087016113a9565b9190910192915050565b600181811c908216806115c057607f821691505b602082108114156115e157634e487b7160e01b600052602260045260246000fd5b50919050565b634e487b7160e01b600052601160045260246000fd5b60008282101561160f5761160f6115e7565b500390565b634e487b7160e01b600052603260045260246000fd5b634e487b7160e01b600052603160045260246000fd5b60408152600061165360408301856113d9565b828103602084015261166581856113d9565b95945050505050565b60608152600061168160608301866113d9565b828103602084015261169381866113d9565b905082810360408401526116a781856113d9565b9695505050505050565b600082198211156116c4576116c46115e7565b500190565b60006000198214156116dd576116dd6115e7565b506001019056fea2646970667358221220d4f3cf0a250d215b8531c076e0977d96d448ed5a1f33174103ac767ac8745ae364736f6c63430008090033",
  "linkReferences": {},
  "deployedLinkReferences": {}
}