{
  "_format": "hh-sol-artifact-1",
  "contractName": "KeyValueStore",
  "sourceName": "contracts/KeyValueStore.sol",
  "abi": [
    {
      "inputs": [],
      "stateMutability": "nonpayable",
      "type": "constructor"
    },
    {
      "anonymous": false,
      "inputs": [
        {
          "indexed": false,
          "internalType": "address",
          "name": "previousAdmin",
          "type": "address"
        },
        {
          "indexed": false,
          "internalType": "address",
          "name": "newAdmin",
          "type": "address"
        }
      ],
      "name": "AdminChanged",
      "type": "event"
    },
    {
      "anonymous": false,
      "inputs": [
        {
          "indexed": true,
          "internalType": "address",
          "name": "beacon",
          "type": "address"
        }
      ],
      "name": "BeaconUpgraded",
      "type": "event"
    },
    {
      "anonymous": false,
      "inputs": [
        {
          "indexed": true,
          "internalType": "address",
          "name": "newImplementation",
          "type": "address"
        }
      ],
      "name": "ContractUpgraded",
      "type": "event"
    },
    {
      "anonymous": false,
      "inputs": [
        {
          "indexed": false,
          "internalType": "uint8",
          "name": "version",
          "type": "uint8"
        }
      ],
      "name": "Initialized",
      "type": "event"
    },
    {
      "anonymous": false,
      "inputs": [
        {
          "indexed": true,
          "internalType": "address",
          "name": "previousOwner",
          "type": "address"
        },
        {
          "indexed": true,
          "internalType": "address",
          "name": "newOwner",
          "type": "address"
        }
      ],
      "name": "OwnershipTransferred",
      "type": "event"
    },
    {
      "anonymous": false,
      "inputs": [
        {
          "indexed": true,
          "internalType": "address",
          "name": "implementation",
          "type": "address"
        }
      ],
      "name": "Upgraded",
      "type": "event"
    },
    {
      "anonymous": false,
      "inputs": [
        {
          "indexed": true,
          "internalType": "address",
          "name": "user",
          "type": "address"
        },
        {
          "indexed": false,
          "internalType": "string",
          "name": "key",
          "type": "string"
        },
        {
          "indexed": false,
          "internalType": "string",
          "name": "value",
          "type": "string"
        }
      ],
      "name": "ValueDeleted",
      "type": "event"
    },
    {
      "anonymous": false,
      "inputs": [
        {
          "indexed": true,
          "internalType": "address",
          "name": "user",
          "type": "address"
        },
        {
          "indexed": false,
          "internalType": "string",
          "name": "key",
          "type": "string"
        },
        {
          "indexed": false,
          "internalType": "string",
          "name": "value",
          "type": "string"
        }
      ],
      "name": "ValueStored",
      "type": "event"
    },
    {
      "anonymous": false,
      "inputs": [
        {
          "indexed": true,
          "internalType": "address",
          "name": "user",
          "type": "address"
        },
        {
          "indexed": false,
          "internalType": "string",
          "name": "key",
          "type": "string"
        },
        {
          "indexed": false,
          "internalType": "string",
          "name": "oldValue",
          "type": "string"
        },
        {
          "indexed": false,
          "internalType": "string",
          "name": "newValue",
          "type": "string"
        }
      ],
      "name": "ValueUpdated",
      "type": "event"
    },
    {
      "inputs": [],
      "name": "MAX_KEY_LENGTH",
      "outputs": [
        {
          "internalType": "uint256",
          "name": "",
          "type": "uint256"
        }
      ],
      "stateMutability": "view",
      "type": "function"
    },
    {
      "inputs": [],
      "name": "MAX_VALUE_LENGTH",
      "outputs": [
        {
          "internalType": "uint256",
          "name": "",
          "type": "uint256"
        }
      ],
      "stateMutability": "view",
      "type": "function"
    },
    {
      "inputs": [
        {
          "internalType": "string",
          "name": "key",
          "type": "string"
        }
      ],
      "name": "exists",
      "outputs": [
        {
          "internalType": "bool",
          "name": "",
          "type": "bool"
        }
      ],
      "stateMutability": "view",
      "type": "function"
    },
    {
      "inputs": [
        {
          "internalType": "address",
          "name": "user",
          "type": "address"
        },
        {
          "internalType": "string",
          "name": "key",
          "type": "string"
        }
      ],
      "name": "existsFor",
      "outputs": [
        {
          "internalType": "bool",
          "name": "",
          "type": "bool"
        }
      ],
      "stateMutability": "view",
      "type": "function"
    },
    {
      "inputs": [
        {
          "internalType": "string",
          "name": "key",
          "type": "string"
        }
      ],
      "name": "get",
      "outputs": [
        {
          "internalType": "string",
          "name": "",
          "type": "string"
        }
      ],
      "stateMutability": "view",
      "type": "function"
    },
    {
      "inputs": [],
      "name": "getAllKeys",
      "outputs": [
        {
          "internalType": "string[]",
          "name": "",
          "type": "string[]"
        }
      ],
      "stateMutability": "view",
      "type": "function"
    },
    {
      "inputs": [
        {
          "internalType": "address",
          "name": "user",
          "type": "address"
        }
      ],
      "name": "getAllKeysFor",
      "outputs": [
        {
          "internalType": "string[]",
          "name": "",
          "type": "string[]"
        }
      ],
      "stateMutability": "view",
      "type": "function"
    },
    {
      "inputs": [
        {
          "internalType": "address",
          "name": "user",
          "type": "address"
        },
        {
          "internalType": "string",
          "name": "key",
          "type": "string"
        }
      ],
      "name": "getFrom",
      "outputs": [
        {
          "internalType": "string",
          "name": "",
          "type": "string"
        }
      ],
      "stateMutability": "view",
      "type": "function"
    },
    {
      "inputs": [],
      "name": "getKeyCount",
      "outputs": [
        {
          "internalType": "uint256",
          "name": "",
          "type": "uint256"
        }
      ],
      "stateMutability": "view",
      "type": "function"
    },
    {
      "inputs": [
        {
          "internalType": "address",
          "name": "user",
          "type": "address"
        }
      ],
      "name": "getKeyCountFor",
      "outputs": [
        {
          "internalType": "uint256",
          "name": "",
          "type": "uint256"
        }
      ],
      "stateMutability": "view",
      "type": "function"
    },
    {
      "inputs": [
        {
          "internalType": "uint256",
          "name": "offset",
          "type": "uint256"
        },
        {
          "internalType": "uint256",
          "name": "limit",
          "type": "uint256"
        }
      ],
      "name": "getKeysPaginated",
      "outputs": [
        {
          "internalType": "string[]",
          "name": "keys",
          "type": "string[]"
        },
        {
          "internalType": "bool",
          "name": "hasMore",
          "type": "bool"
        }
      ],
      "stateMutability": "view",
      "type": "function"
    },
    {
      "inputs": [
        {
          "internalType": "address",
          "name": "user",
          "type": "address"
        },
        {
          "internalType": "uint256",
          "name": "offset",
          "type": "uint256"
        },
        {
          "internalType": "uint256",
          "name": "limit",
          "type": "uint256"
        }
      ],
      "name": "getKeysPaginatedFor",
      "outputs": [
        {
          "internalType": "string[]",
          "name": "keys",
          "type": "string[]"
        },
        {
          "internalType": "bool",
          "name": "hasMore",
          "type": "bool"
        }
      ],
      "stateMutability": "view",
      "type": "function"
    },
    {
      "inputs": [],
      "name": "initialize",
      "outputs": [],
      "stateMutability": "nonpayable",
      "type": "function"
    },
    {
      "inputs": [],
      "name": "owner",
      "outputs": [
        {
          "internalType": "address",
          "name": "",
          "type": "address"
        }
      ],
      "stateMutability": "view",
      "type": "function"
    },
    {
      "inputs": [],
      "name": "proxiableUUID",
      "outputs": [
        {
          "internalType": "bytes32",
          "name": "",
          "type": "bytes32"
        }
      ],
      "stateMutability": "view",
      "type": "function"
    },
    {
      "inputs": [
        {
          "internalType": "string",
          "name": "key",
          "type": "string"
        }
      ],
      "name": "remove",
      "outputs": [],
      "stateMutability": "nonpayable",
      "type": "function"
    },
    {
      "inputs": [],
      "name": "renounceOwnership",
      "outputs": [],
      "stateMutability": "nonpayable",
      "type": "function"
    },
    {
      "inputs": [
        {
          "internalType": "string",
          "name": "key",
          "type": "string"
        },
        {
          "internalType": "string",
          "name": "value",
          "type": "string"
        }
      ],
      "name": "set",
      "outputs": [],
      "stateMutability": "nonpayable",
      "type": "function"
    },
    {
      "inputs": [
        {
          "internalType": "address",
          "name": "newOwner",
          "type": "address"
        }
      ],
      "name": "transferOwnership",
      "outputs": [],
      "stateMutability": "nonpayable",
      "type": "function"
    },
    {
      "inputs": [
        {
          "internalType": "address",
          "name": "newImplementation",
          "type": "address"
        }
      ],
      "name": "upgradeTo",
      "outputs": [],
      "stateMutability": "nonpayable",
      "type": "function"
    },
    {
      "inputs": [
        {
          "internalType": "address",
          "name": "newImplementation",
          "type": "address"
        },
        {
          "internalType": "bytes",
          "name": "data",
          "type": "bytes"
        }
      ],
      "name": "upgradeToAndCall",
      "outputs": [],
      "stateMutability": "payable",
      "type": "function"
    }
  ],
  "bytecode": "0x60a06040523060805234801561001457600080fd5b5061001d610022565b6100e1565b600054610100900460ff161561008e5760405162461bcd60e51b815260206004820152602760248201527f496e697469616c697a61626c653a20636f6e747261637420697320696e697469604482015266616c697a696e6760c81b606482015260840160405180910390fd5b60005460ff908116146100df576000805460ff191660ff9081179091556040519081527f7f26b83ff96e1f2b6a682f133852f6798a09c465da95921460cefb38474024989060200160405180910390a15b565b60805161220c620001196000396000818161053b01528181610584015281816106240152818161066401526106f7015261220c6000f3fe60806040526004361061012a5760003560e01c8063715018a6116100ab578063bc87eed31161006f578063bc87eed314610338578063c03029bb1461034d578063e942b5161461036d578063ee1ce8411461038d578063f26b8ad9146103af578063f2fde38b146103cf57600080fd5b8063715018a6146102a657806371956db3146102bb57806380599e4b146102db5780638129fc1c146102fb5780638da5cb5b1461031057600080fd5b806348560a89116100f257806348560a89146102055780634f1ef2861461021b57806352d1902d1461022e578063693ec85e146102435780636e914a021461027057600080fd5b806304491c3e1461012f578063261a323e1461015857806327a5bd6714610188578063298f5138146101b65780633659cfe6146101e3575b600080fd5b34801561013b57600080fd5b5061014561010081565b6040519081526020015b60405180910390f35b34801561016457600080fd5b50610178610173366004611c91565b6103ef565b604051901515815260200161014f565b34801561019457600080fd5b506101a86101a3366004611ce2565b610425565b60405161014f929190611dc2565b3480156101c257600080fd5b506101d66101d1366004611de6565b610441565b60405161014f9190611e01565b3480156101ef57600080fd5b506102036101fe366004611de6565b610530565b005b34801561021157600080fd5b5061014561200081565b610203610229366004611e14565b610619565b34801561023a57600080fd5b506101456106ea565b34801561024f57600080fd5b5061026361025e366004611c91565b61079d565b60405161014f9190611e76565b34801561027c57600080fd5b5061014561028b366004611de6565b6001600160a01b0316600090815260ca602052604090205490565b3480156102b257600080fd5b5061020361085d565b3480156102c757600080fd5b506101a86102d6366004611e89565b610871565b3480156102e757600080fd5b506102036102f6366004611c91565b61088b565b34801561030757600080fd5b50610203610cbc565b34801561031c57600080fd5b506097546040516001600160a01b03909116815260200161014f565b34801561034457600080fd5b506101d6610dd4565b34801561035957600080fd5b50610263610368366004611eab565b610eb8565b34801561037957600080fd5b50610203610388366004611eef565b610f82565b34801561039957600080fd5b5033600090815260ca6020526040902054610145565b3480156103bb57600080fd5b506101786103ca366004611eab565b61133e565b3480156103db57600080fd5b506102036103ea366004611de6565b61137f565b33600090815260cb6020526040808220905161040c908490611f49565b9081526040519081900360200190205460ff1692915050565b606060006104348585856113f5565b915091505b935093915050565b6001600160a01b038116600090815260ca60209081526040808320805482518185028101850190935280835260609492939192909184015b8282101561052557838290600052602060002001805461049890611f65565b80601f01602080910402602001604051908101604052809291908181526020018280546104c490611f65565b80156105115780601f106104e657610100808354040283529160200191610511565b820191906000526020600020905b8154815290600101906020018083116104f457829003601f168201915b505050505081526020019060010190610479565b505050509050919050565b306001600160a01b037f00000000000000000000000000000000000000000000000000000000000000001614156105825760405162461bcd60e51b815260040161057990611fa0565b60405180910390fd5b7f00000000000000000000000000000000000000000000000000000000000000006001600160a01b03166105cb600080516020612190833981519152546001600160a01b031690565b6001600160a01b0316146105f15760405162461bcd60e51b815260040161057990611fec565b6105fa816115d4565b6040805160008082526020820190925261061691839190611613565b50565b306001600160a01b037f00000000000000000000000000000000000000000000000000000000000000001614156106625760405162461bcd60e51b815260040161057990611fa0565b7f00000000000000000000000000000000000000000000000000000000000000006001600160a01b03166106ab600080516020612190833981519152546001600160a01b031690565b6001600160a01b0316146106d15760405162461bcd60e51b815260040161057990611fec565b6106da826115d4565b6106e682826001611613565b5050565b6000306001600160a01b037f0000000000000000000000000000000000000000000000000000000000000000161461078a5760405162461bcd60e51b815260206004820152603860248201527f555550535570677261646561626c653a206d757374206e6f742062652063616c60448201527f6c6564207468726f7567682064656c656761746563616c6c00000000000000006064820152608401610579565b5060008051602061219083398151915290565b33600090815260c96020526040908190209051606091906107bf908490611f49565b908152602001604051809103902080546107d890611f65565b80601f016020809104026020016040519081016040528092919081815260200182805461080490611f65565b80156108515780601f1061082657610100808354040283529160200191610851565b820191906000526020600020905b81548152906001019060200180831161083457829003601f168201915b50505050509050919050565b61086561178d565b61086f60006117e7565b565b606060006108803385856113f5565b915091509250929050565b33600081815260cb60205260409081902090516108a9908490611f49565b9081526040519081900360200190205460ff166108fd5760405162461bcd60e51b815260206004820152601260248201527112d95e48191bd95cc81b9bdd08195e1a5cdd60721b6044820152606401610579565b6001600160a01b038116600090815260c960205260408082209051610923908590611f49565b9081526020016040518091039020805461093c90611f65565b80601f016020809104026020016040519081016040528092919081815260200182805461096890611f65565b80156109b55780601f1061098a576101008083540402835291602001916109b5565b820191906000526020600020905b81548152906001019060200180831161099857829003601f168201915b5050506001600160a01b038516600090815260c96020526040908190209051939450926109e59250869150611f49565b908152602001604051809103902060006109ff9190611b12565b6001600160a01b038216600090815260cb6020526040908190209051610a26908590611f49565b9081526040805160209281900383018120805460ff191690556001600160a01b038516600090815260cc90935290822090610a62908690611f49565b9081526040805160209281900383019020546001600160a01b038616600090815260ca90935290822054909250610a9b9060019061204e565b9050808214610bf4576001600160a01b038416600090815260ca60205260408120805483908110610ace57610ace612065565b906000526020600020018054610ae390611f65565b80601f0160208091040260200160405190810160405280929190818152602001828054610b0f90611f65565b8015610b5c5780601f10610b3157610100808354040283529160200191610b5c565b820191906000526020600020905b815481529060010190602001808311610b3f57829003601f168201915b505050505090508060ca6000876001600160a01b03166001600160a01b031681526020019081526020016000208481548110610b9a57610b9a612065565b906000526020600020019080519060200190610bb7929190611b4c565b506001600160a01b038516600090815260cc6020526040908190209051849190610be2908490611f49565b90815260405190819003602001902055505b6001600160a01b038416600090815260ca60205260409020805480610c1b57610c1b61207b565b600190038181906000526020600020016000610c379190611b12565b90556001600160a01b038416600090815260cc6020526040908190209051610c60908790611f49565b908152602001604051809103902060009055836001600160a01b03167fbb479abda96ff9f438c576a864d5defaafdcc6bc01f7fb49b2ef71ea66f133848685604051610cad929190612091565b60405180910390a25050505050565b600054610100900460ff1615808015610cdc5750600054600160ff909116105b80610cf65750303b158015610cf6575060005460ff166001145b610d595760405162461bcd60e51b815260206004820152602e60248201527f496e697469616c697a61626c653a20636f6e747261637420697320616c72656160448201526d191e481a5b9a5d1a585b1a5e995960921b6064820152608401610579565b6000805460ff191660011790558015610d7c576000805461ff0019166101001790555b610d84611839565b610d8c611868565b8015610616576000805461ff0019169055604051600181527f7f26b83ff96e1f2b6a682f133852f6798a09c465da95921460cefb38474024989060200160405180910390a150565b33600090815260ca60209081526040808320805482518185028101850190935280835260609492939192909184015b82821015610eaf578382906000526020600020018054610e2290611f65565b80601f0160208091040260200160405190810160405280929190818152602001828054610e4e90611f65565b8015610e9b5780601f10610e7057610100808354040283529160200191610e9b565b820191906000526020600020905b815481529060010190602001808311610e7e57829003601f168201915b505050505081526020019060010190610e03565b50505050905090565b6001600160a01b038216600090815260c9602052604090819020905160609190610ee3908490611f49565b90815260200160405180910390208054610efc90611f65565b80601f0160208091040260200160405190810160405280929190818152602001828054610f2890611f65565b8015610f755780601f10610f4a57610100808354040283529160200191610f75565b820191906000526020600020905b815481529060010190602001808311610f5857829003601f168201915b5050505050905092915050565b6000825111610fc95760405162461bcd60e51b81526020600482015260136024820152724b65792063616e6e6f7420626520656d70747960681b6044820152606401610579565b6101008251111561100b5760405162461bcd60e51b815260206004820152600c60248201526b4b657920746f6f206c6f6e6760a01b6044820152606401610579565b6120008151111561104f5760405162461bcd60e51b815260206004820152600e60248201526d56616c756520746f6f206c6f6e6760901b6044820152606401610579565b33600081815260cb602052604090819020905161106d908590611f49565b9081526040519081900360200190205460ff16156111e5576001600160a01b038116600090815260c9602052604080822090516110ab908690611f49565b908152602001604051809103902080546110c490611f65565b80601f01602080910402602001604051908101604052809291908181526020018280546110f090611f65565b801561113d5780601f106111125761010080835404028352916020019161113d565b820191906000526020600020905b81548152906001019060200180831161112057829003601f168201915b505050505090508260c96000846001600160a01b03166001600160a01b03168152602001908152602001600020856040516111789190611f49565b90815260200160405180910390209080519060200190611199929190611b4c565b50816001600160a01b03167f19f9a6c4b00573371d4f2a1bea11731fc4831e5f340d9a2eed1ea15b6244c1e98583866040516111d7939291906120bf565b60405180910390a250505050565b6001600160a01b038116600090815260c9602052604090819020905183919061120f908690611f49565b90815260200160405180910390209080519060200190611230929190611b4c565b506001600160a01b038116600090815260cb60205260409081902090516001919061125c908690611f49565b9081526040805160209281900383018120805460ff1916941515949094179093556001600160a01b038416600090815260ca83528181205460cc9093522090916112a7908690611f49565b9081526040805160209281900383019020929092556001600160a01b038316600090815260ca825291822080546001810182559083529181902085516112f4939190910191860190611b4c565b50806001600160a01b03167f297aa55e5abdb280e9f44772bf95eb34a66ecd1fed47d0edd5edb074498850e68484604051611330929190612091565b60405180910390a25b505050565b6001600160a01b038216600090815260cb60205260408082209051611364908490611f49565b9081526040519081900360200190205460ff16905092915050565b61138761178d565b6001600160a01b0381166113ec5760405162461bcd60e51b815260206004820152602660248201527f4f776e61626c653a206e6577206f776e657220697320746865207a65726f206160448201526564647265737360d01b6064820152608401610579565b610616816117e7565b6001600160a01b038316600090815260ca602052604081205460609190808510611451576040805160008082526020820190925290611444565b606081526020019060019003908161142f5790505b5060009250925050610439565b600061145d85876120f8565b90508181111561146a5750805b6000611476878361204e565b90508067ffffffffffffffff81111561149157611491611be5565b6040519080825280602002602001820160405280156114c457816020015b60608152602001906001900390816114af5790505b50945060005b818110156115c7576001600160a01b038916600090815260ca602052604090206114f4828a6120f8565b8154811061150457611504612065565b90600052602060002001805461151990611f65565b80601f016020809104026020016040519081016040528092919081815260200182805461154590611f65565b80156115925780601f1061156757610100808354040283529160200191611592565b820191906000526020600020905b81548152906001019060200180831161157557829003601f168201915b50505050508682815181106115a9576115a9612065565b602002602001018190525080806115bf90612110565b9150506114ca565b5050109050935093915050565b6115dc61178d565b6040516001600160a01b038216907fc68d6b394bbff225c75b6ba60811fafb0da04351338aa28c9614981c55287be290600090a250565b7f4910fdfa16fed3260ed0e7147f7cc6da11a60208b5b9406d12a635614ffd91435460ff1615611646576113398361188f565b826001600160a01b03166352d1902d6040518163ffffffff1660e01b815260040160206040518083038186803b15801561167f57600080fd5b505afa9250505080156116af575060408051601f3d908101601f191682019092526116ac9181019061212b565b60015b6117125760405162461bcd60e51b815260206004820152602e60248201527f45524331393637557067726164653a206e657720696d706c656d656e7461746960448201526d6f6e206973206e6f74205555505360901b6064820152608401610579565b60008051602061219083398151915281146117815760405162461bcd60e51b815260206004820152602960248201527f45524331393637557067726164653a20756e737570706f727465642070726f786044820152681a58589b195555525160ba1b6064820152608401610579565b5061133983838361192b565b6097546001600160a01b0316331461086f5760405162461bcd60e51b815260206004820181905260248201527f4f776e61626c653a2063616c6c6572206973206e6f7420746865206f776e65726044820152606401610579565b609780546001600160a01b038381166001600160a01b0319831681179093556040519116919082907f8be0079c531659141344cd1fd0a4f28419497f9722a3daafe3b4186f6b6457e090600090a35050565b600054610100900460ff166118605760405162461bcd60e51b815260040161057990612144565b61086f611956565b600054610100900460ff1661086f5760405162461bcd60e51b815260040161057990612144565b6001600160a01b0381163b6118fc5760405162461bcd60e51b815260206004820152602d60248201527f455243313936373a206e657720696d706c656d656e746174696f6e206973206e60448201526c1bdd08184818dbdb9d1c9858dd609a1b6064820152608401610579565b60008051602061219083398151915280546001600160a01b0319166001600160a01b0392909216919091179055565b61193483611986565b6000825111806119415750805b156113395761195083836119c6565b50505050565b600054610100900460ff1661197d5760405162461bcd60e51b815260040161057990612144565b61086f336117e7565b61198f8161188f565b6040516001600160a01b038216907fbc7cd75a20ee27fd9adebab32041f755214dbc6bffa90cc0225b39da2e5c2d3b90600090a250565b60606119eb83836040518060600160405280602781526020016121b0602791396119f2565b9392505050565b6060600080856001600160a01b031685604051611a0f9190611f49565b600060405180830381855af49150503d8060008114611a4a576040519150601f19603f3d011682016040523d82523d6000602084013e611a4f565b606091505b5091509150611a6086838387611a6a565b9695505050505050565b60608315611ad6578251611acf576001600160a01b0385163b611acf5760405162461bcd60e51b815260206004820152601d60248201527f416464726573733a2063616c6c20746f206e6f6e2d636f6e74726163740000006044820152606401610579565b5081611ae0565b611ae08383611ae8565b949350505050565b815115611af85781518083602001fd5b8060405162461bcd60e51b81526004016105799190611e76565b508054611b1e90611f65565b6000825580601f10611b2e575050565b601f0160209004906000526020600020908101906106169190611bd0565b828054611b5890611f65565b90600052602060002090601f016020900481019282611b7a5760008555611bc0565b82601f10611b9357805160ff1916838001178555611bc0565b82800160010185558215611bc0579182015b82811115611bc0578251825591602001919060010190611ba5565b50611bcc929150611bd0565b5090565b5b80821115611bcc5760008155600101611bd1565b634e487b7160e01b600052604160045260246000fd5b600067ffffffffffffffff80841115611c1657611c16611be5565b604051601f8501601f19908116603f01168101908282118183101715611c3e57611c3e611be5565b81604052809350858152868686011115611c5757600080fd5b858560208301376000602087830101525050509392505050565b600082601f830112611c8257600080fd5b6119eb83833560208501611bfb565b600060208284031215611ca357600080fd5b813567ffffffffffffffff811115611cba57600080fd5b611ae084828501611c71565b80356001600160a01b0381168114611cdd57600080fd5b919050565b600080600060608486031215611cf757600080fd5b611d0084611cc6565b95602085013595506040909401359392505050565b60005b83811015611d30578181015183820152602001611d18565b838111156119505750506000910152565b60008151808452611d59816020860160208601611d15565b601f01601f19169290920160200192915050565b600081518084526020808501808196508360051b8101915082860160005b85811015611db5578284038952611da3848351611d41565b98850198935090840190600101611d8b565b5091979650505050505050565b604081526000611dd56040830185611d6d565b905082151560208301529392505050565b600060208284031215611df857600080fd5b6119eb82611cc6565b6020815260006119eb6020830184611d6d565b60008060408385031215611e2757600080fd5b611e3083611cc6565b9150602083013567ffffffffffffffff811115611e4c57600080fd5b8301601f81018513611e5d57600080fd5b611e6c85823560208401611bfb565b9150509250929050565b6020815260006119eb6020830184611d41565b60008060408385031215611e9c57600080fd5b50508035926020909101359150565b60008060408385031215611ebe57600080fd5b611ec783611cc6565b9150602083013567ffffffffffffffff811115611ee357600080fd5b611e6c85828601611c71565b60008060408385031215611f0257600080fd5b823567ffffffffffffffff80821115611f1a57600080fd5b611f2686838701611c71565b93506020850135915080821115611f3c57600080fd5b50611e6c85828601611c71565b60008251611f5b818460208701611d15565b9190910192915050565b600181811c90821680611f7957607f821691505b60208210811415611f9a57634e487b7160e01b600052602260045260246000fd5b50919050565b6020808252602c908201527f46756e6374696f6e206d7573742062652063616c6c6564207468726f7567682060408201526b19195b1959d85d1958d85b1b60a21b606082015260800190565b6020808252602c908201527f46756e6374696f6e206d7573742062652063616c6c6564207468726f7567682060408201526b6163746976652070726f787960a01b606082015260800190565b634e487b7160e01b600052601160045260246000fd5b60008282101561206057612060612038565b500390565b634e487b7160e01b600052603260045260246000fd5b634e487b7160e01b600052603160045260246000fd5b6040815260006120a46040830185611d41565b82810360208401526120b68185611d41565b95945050505050565b6060815260006120d26060830186611d41565b82810360208401526120e48186611d41565b90508281036040840152611a608185611d41565b6000821982111561210b5761210b612038565b500190565b600060001982141561212457612124612038565b5060010190565b60006020828403121561213d57600080fd5b5051919050565b6020808252602b908201527f496e697469616c697a61626c653a20636f6e7472616374206973206e6f74206960408201526a6e697469616c697a696e6760a81b60608201526080019056fe360894a13ba1a3210667c828492db98dca3e2076cc3735a920a3ca505d382bbc416464726573733a206c6f772d6c6576656c2064656c65676174652063616c6c206661696c6564a264697066735822122091ff436ad95fff784dc833a397cfb4027220819da6e2dc35fa4e66c6806677d664736f6c63430008090033",
  "linkReferences": {},
  "deployedLinkReferences": {}
}